8=FIX.4.4|9=118|35=A|34=1|49=MD01_FAB_FIXSTG2|52=20200805-16:06:08.876|56=FIXCTSBOBGW|98=0|108=30|141=Y|553=bbnd_fab_md1|554=testing1|10=143|8=FIX.4.4|9=121|35=BE|34=2|49=MD01_FAB_FIXSTG2|52=20200805-16:06:09.859|56=FIXCTSBOBGW|553=bbnd_fab_md1|554=testing1|923=661516808|924=1|10=079|8=FIX.4.4|9=160|35=V|34=3|49=MD01_FAB_FIXSTG2|52=20200805-16:06:14.889|56=FIXCTSBOBGW|262=ef7f0221-f9b3-4eb9-9a1d-2281cebfdf05|263=1|264=0|266=N|146=1|55=ALL|267=2|269=0|269=1|10=204|