8=FIX.4.4|9=118|35=A|34=1|49=MD02_FAB_FIXSTG5|52=20200804-10:23:21.745|56=FIXCTSBOBGW|98=0|108=30|141=Y|553=bbnd_fab_md1|554=testing1|10=129|8=FIX.4.4|9=123|35=BE|34=2|49=MD02_FAB_FIXSTG5|52=20200804-10:23:22.755|56=FIXCTSBOBGW|553=bbnd_fab_md2|554=bgctest123|923=661516808|924=1|10=151|8=FIX.4.4|9=160|35=V|34=3|49=MD02_FAB_FIXSTG5|52=20200804-10:23:27.771|56=FIXCTSBOBGW|262=8f173cc6-a244-4281-9c59-199f29cfabfd|263=1|264=0|266=N|146=1|55=ALL|267=2|269=0|269=1|10=069|