8=FIX.4.4|9=118|35=A|34=1|49=MD02_FAB_FIXSTG5|52=20200803-06:36:50.504|56=FIXCTSBOBGW|98=0|108=30|141=Y|553=bbnd_fab_md1|554=testing1|10=132|8=FIX.4.4|9=123|35=BE|34=2|49=MD02_FAB_FIXSTG5|52=20200803-06:36:51.483|56=FIXCTSBOBGW|553=bbnd_fab_md2|554=bgctest123|923=661516808|924=1|10=159|8=FIX.4.4|9=160|35=V|34=3|49=MD02_FAB_FIXSTG5|52=20200803-06:36:56.505|56=FIXCTSBOBGW|262=b7912edb-b12f-4ddf-89a7-de606a1796fb|263=1|264=0|266=N|146=1|55=ALL|267=2|269=0|269=1|10=210|8=FIX.4.4|9=70|35=0|34=4|49=MD02_FAB_FIXSTG5|52=20200803-06:37:27.479|56=FIXCTSBOBGW|10=168|8=FIX.4.4|9=70|35=0|34=5|49=MD02_FAB_FIXSTG5|52=20200803-06:37:57.478|56=FIXCTSBOBGW|10=171|8=FIX.4.4|9=70|35=0|34=6|49=MD02_FAB_FIXSTG5|52=20200803-06:38:27.478|56=FIXCTSBOBGW|10=170|8=FIX.4.4|9=70|35=0|34=7|49=MD02_FAB_FIXSTG5|52=20200803-06:38:57.479|56=FIXCTSBOBGW|10=175|8=FIX.4.4|9=70|35=0|34=8|49=MD02_FAB_FIXSTG5|52=20200803-06:39:27.478|56=FIXCTSBOBGW|10=173|8=FIX.4.4|9=70|35=0|34=9|49=MD02_FAB_FIXSTG5|52=20200803-06:39:57.479|56=FIXCTSBOBGW|10=178|8=FIX.4.4|9=71|35=0|34=10|49=MD02_FAB_FIXSTG5|52=20200803-06:40:27.478|56=FIXCTSBOBGW|10=207|8=FIX.4.4|9=71|35=0|34=11|49=MD02_FAB_FIXSTG5|52=20200803-06:40:57.479|56=FIXCTSBOBGW|10=212|