8=FIX.4.4|9=120|35=A|34=1|49=MD02_FAB_FIXSTG5|52=20200728-09:28:19.641|56=FIXCTSBOBGW|98=0|108=30|141=Y|553=bbnd_fab_md2|554=bgctest123|10=226|8=FIX.4.4|9=123|35=BE|34=2|49=MD02_FAB_FIXSTG5|52=20200728-09:28:20.591|56=FIXCTSBOBGW|553=bbnd_fab_md2|554=bgctest123|923=661516808|924=1|10=165|8=FIX.4.4|9=160|35=V|34=3|49=MD02_FAB_FIXSTG5|52=20200728-09:28:25.616|56=FIXCTSBOBGW|262=7396235e-1d1c-4838-b861-9fcde864496d|263=1|264=0|266=N|146=1|55=ALL|267=2|269=0|269=1|10=205|