8=FIX.4.2|9=99|35=A|34=1|49=client|52=20200715-11:40:25.034|56=server|98=0|108=30|553=bbnd_fab_md2|554=bgctest123|10=202|