8=FIX.4.4|9=118|35=A|34=1|49=MD02_FAB_FIXSTG2|52=20200803-04:23:59.071|56=FIXCTSBOBGW|98=0|108=30|141=Y|553=bbnd_fab_md1|554=testing1|10=131|