8=FIX.4.4|9=118|35=A|34=1|49=MD01_FAB_FIXSTG2|52=20200803-03:19:08.054|56=FIXCTSBOBGW|98=0|108=30|141=Y|553=bbnd_fab_md1|554=testing1|10=129|8=FIX.4.4|9=121|35=BE|34=2|49=MD01_FAB_FIXSTG2|52=20200803-03:19:09.014|56=FIXCTSBOBGW|553=bbnd_fab_md1|554=testing1|923=661516808|924=1|10=060|8=FIX.4.4|9=70|35=5|34=3|49=MD01_FAB_FIXSTG2|52=20200803-03:19:09.422|56=FIXCTSBOBGW|10=153|